:020000040800F2
:10000000500B0020AD0100083F22000835210008F8
:100010003D220008730F0008853000080000000032
:10002000000000000000000000000000992400080B
:10003000351100080000000059230008D12B0008EA
:10004000C7010008C7010008C7010008C701000870
:10005000C7010008C7010008C7010008C701000860
:10006000C7010008C7010008C7010008C701000850
:10007000C7010008C7010008C7010008C701000840
:10008000C7010008C7010008C70100080000000000
:10009000000000000000000000000000C701000890
:1000A000C7010008C7010008C7010008C701000810
:1000B000C7010008C7010008C7010008C701000800
:1000C000C7010008C7010008C7010008C7010008F0
:1000D000C7010008C70100086D30000800000000DB
:1000E000C7010008C7010008C701000800000000A0
:1000F000000000000000000000000000C701000830
:1001000000000000C7010008C7010008C70100087F
:1001100000000000000000000000000000000000DF
:10012000C7010008C7010008C7010008C70100088F
:10013000C7010008000000000000000000000000EF
:10014000000000000000000000000000C7010008DF
:10015000C7010008C7010008C7010008793000087E
:10016000C7010008C70100080000000000000000EF
:10017000000000000000000000000000000000007F
:1001800000000000C701000800000000000000009F
:10019000C7010008C7010008DFF80CD000F036FEE8
:1001A00000480047AD3E0008500B0020064880473D
:1001B00006480047FEE7FEE7FEE7FEE7FEE7FEE74C
:1001C000FEE7FEE7FEE7FEE7652C00089901000860
:1001D0002DE9F05F0546002092469B46884606467C
:1001E000814640241BE0284641464746224600F00F
:1001F00038FC53465A46C01A914110D3114618464E
:10020000224600F01FFC2D1A67EB01084F462246DC
:100210000120002100F016FC17EB00094E41201EC2
:10022000A4F10104DFDC484631462A464346BDE8D6
:10023000F09FA0F14101192900D82030704700003B
:100240000649074A0868504343F2390210440860DF
:100250004008704701490860704700007C0000209A
:100260006D4EC64140EA01039B0703D009E008C96F
:10027000121F08C0042AFAD203E011F8013B00F86B
:10028000013B521EF9D27047D2B201E000F8012BB7
:10029000491EFBD270470022F6E710B513460A4606
:1002A00004461946FFF7F0FF204610BD421E12F823
:1002B000013F002BFBD111F8013B02F8013B002B61
:1002C000F9D1704730B505462A460B4612F8010BA6
:1002D00013F8014B08B1A042F8D01CB1002802D09D
:1002E0006D1CF1E7284630BD421C10F8011B0029A7
:1002F000FBD1801A704710B5002200E0521C835CCD
:100300008C5CA34201D1002BF8D1D8B2E1B2401AE3
:1003100010BD30B505460020034600E05B1C93424B
:1003200005D2EC5CC85C201A01D1002CF6D130BD9E
:1003300070B50F4D00B92868002412E00A4602E0AB
:100340009E4203D0521C1378002BF9D1DAB222431B
:1003500005D02BB124B1002100F8011B04E00446B4
:10036000401C0678002EE9D12860204670BD0000B0
:10037000800000202DE9FF4F087883B09946FF28C0
:1003800005D0491C2D2804D00024002008E00020BE
:100390000BE00124F9E700EB800003EB4000491C6F
:1003A0000B78FF2BF7D104B140420023029314785D
:1003B00019461D462D2C01D02B2C04D1521C2D2C5E
:1003C00013D000240294AA461478FF2C0FD00A25DB
:1003D000A3FB057801FB05814FF0000C03FB0C111A
:1003E000521CE3194AEB0101EEE70124EAE78144DC
:1003F00053EA010002D019F5C87F06DA03980021FC
:10040000C0E9001107B0BDE8F08F0025AE4E2F46C1
:10041000DFF8B882184600F0B9FCCDE90001B9F167
:10042000000002DAC9F1000400E004460023A74AF4
:100430001AEB030B42EB045A12E0E00707D02A46FE
:1004400033463846414600F0F9F9074688462A46C1
:1004500033461046194600F0F1F905460E46641081
:10046000002CEAD1DDE90001B9F1000F5A465346EC
:1004700006DA00F01CFC3A46434600F018FC05E0A2
:1004800000F0DCF93A46434600F0D8F9029A0AB186
:1004900081F00041039AC2E90001B3E72DE9FF4F63
:1004A0001F468DB0D7E901464FF0FF382E20454654
:1004B0004FF000090B90B9696D1C0E988847396A96
:1004C000824688470028F6D1BAF1FF3F0AD024F4CB
:1004D000D064002E11DDBAF12B0F08D0BAF12D0F28
:1004E0000BD102E0404611B08DE744F48064B96955
:1004F0006D1C0E9888478246761E6946600501D5B8
:100500002D2000E02B208DF8000001F1010B0DF1F2
:10051000200809E0B9696D1C0E98884782460F983B
:1005200044F40074761E0560002E02DDBAF1300F2F
:10053000F0D00B998A453ED144F0800406E00F9933
:10054000681CA9F1010944F400740860B9696D1CC4
:10055000761E0E98884782463028F0D02BE00B9903
:100560008A4505D1200603D444F08004761E18E0A5
:10057000504602F017FF08B30DF11301761E44F444
:1005800000748B4508D2AAF130000BF8010B20064D
:1005900007D5A9F1010003E0200602D409F101000A
:1005A0008146A00502D50F99681C0860B9696D1CC9
:1005B0000E9888478246002ED1DC53E0002E51DD94
:1005C000BAF1650F02D0BAF1450F4BD1A00549D55C
:1005D000B9696D1C24F44074761E0E9888478246D3
:1005E000002E0CDD2B2804D0BAF12D0F07D144F4D6
:1005F0008074B9696D1C0E9888478246761EE005A6
:1006000001D52D2100E02B2108F8011BCDF82C800D
:1006100021E00DF12901761E44F4007488450CD2C6
:10062000AAF1300010F0FF0088F8000002D10B9909
:10063000884509D908F1010806E0E00501D52448FC
:1006400001E042F20F708146B9696D1C0E9888472F
:1006500082460F980560002E04DD504602F0A2FE8F
:100660000028D6D1F9690E988847FF208BF8000042
:1006700088F800000020069007904B466A4608A9BB
:1006800006A8FFF777FEA00502D46FF001002AE765
:1006900014F0240F0AD0E00714D1DDE906123868FF
:1006A000031D3B600068C0E900120BE0DDE90601B4
:1006B00000F090FB0146E00704D13868021D3A6063
:1006C0000068016028460EE7000014400000F03F7B
:1006D000F1D8FFFF70B5064602F022FD046805461A
:1006E0000A220021304600F04DFA2C6070BD2DE941
:1006F000FE4F804681EA0300C00F0C46009021F0B7
:10070000004123F00045B8EB0200A94105D2404664
:10071000214690461C460B46024623F000401043FB
:1007200047D0270DC7F30A00C3F30A510290401ABD
:10073000019040286BDAC3F3130040F4801B00984B
:10074000924620B10023D2EB030A63EB0B0B019816
:100750005946C0F14002504600F074F906460D4675
:1007600050465946019A00F08CF910EB080061419F
:10077000002487EA115284EAE7731A4340D0009AB2
:1007800062B3019A012A4FEA075215DC001B61EBA4
:1007900002014FF0004202EA0752CDE90042001C7C
:1007A00041F5801132462B4600F033FA03B0BDE824
:1007B000F08F40462146F9E7001B61EB0201001C67
:1007C00041F5801300185B412018A2F5001747EB94
:1007D000030140EAD570B6196D4111E06D084FEA8A
:1007E000360645EAC0754FEA0752001B61EB02016D
:1007F000001C41F5801149084FEA300000195141B1
:1008000032462B4603B0BDE8F04F00F0F3B9009834
:10081000012240000023D0EB020263EBE07300985A
:1008200021464FEAE074B8EB000061EB0401E9E710
:1008300083F000435BE781F0004158E72DE9FE4F6C
:1008400081EA030404F0004421F0004100944FF0D9
:10085000000B23F0004350EA01045ED052EA030487
:100860005BD0C3F30A54C1F30A552C44A4F2F33409
:100870000194A0FB0254C1F3130141F48011C3F3AE
:10088000130343F4801301FB024400FB034E840A6C
:10089000970A44EA815447EA8357A4FB0768029504
:1008A0008D0A05FB07854FEA932C04FB0C542705A2
:1008B000029D4FEA065847EA1637B5EB08056EEB7E
:1008C000070C870E920E47EA811742EA8312A7FBB4
:1008D0000201B6EB0B0164EB00042B0D43EA0C3371
:1008E0005E1844EB1C50DA465146E7FB0201C5F3A3
:1008F00013044FEA0B3343EA14534FEA0432019CCA
:1009000043EA0603A4F10C040294009CCDE900B470
:1009100000F07FF903B0BDE8F08F00200146F9E751
:1009200070B5C1F30A5201F000450024C1F3130170
:1009300040F2FF3341F480119A4201DA002070BD89
:1009400040F233439A42A2F2334203DC524200F0B7
:1009500088F800E090402C43F1D0404270BDC1F3D4
:100960000A5210B5C1F3130140F2FF3341F4801174
:100970009A4201DA002010BD40F233439A42A2F2BB
:10098000334203DC524200F06CF810BD904010BDC1
:1009900000F0004230F000400AD0C10D01F5607156
:1009A000C0F3160042EA0151C208400711437047E4
:1009B000002001467047000030B5041E71F10004AC
:1009C00004DB4FF00044404264EB0101141E73F15C
:1009D000000405DB1C464FF00043524263EB040366
:1009E0008B4208BF824230BD30B5041E71F1000455
:1009F00004DB4FF00044404264EB0101141E73F12C
:100A0000000405DB1C464FF00043524263EB040335
:100A1000994208BF904230BD30B50B4601460020D8
:100A20002022012409E021FA02F59D4205D303FAB0
:100A300002F5491B04FA02F52844151EA2F1010231
:100A4000F1DC30BD202A04DB203A00FA02F100205C
:100A500070479140C2F1200320FA03F319439040FC
:100A60007047202A04DB203A21FA02F00021704767
:100A700021FA02F3D040C2F1200291400843194606
:100A80007047202A06DBCB17203A41FA02F043EAEE
:100A9000E07306E041FA02F3D040C2F12002914037
:100AA000084319467047426842B1016811F8013B9A
:100AB00023B1521EC0E90012184670470121C160DF
:100AC000881E704742685AB1C368016843B9836899
:100AD0008B4205D0491E521CC0E90012002070470D
:100AE0004FF0FF30704700000FB4002300B589B00D
:100AF0000CA900910B996FF00042CB601E4B06933E
:100B00001E4B07930423CDE901321D4A0892024689
:100B10006B460020FFF7C2FC09B05DF814FB70B50E
:100B200086B006464FF0FF300091CDE9010100206C
:100B300015460C4604903246694604A8FFF7D4FFD8
:100B400002460498211825B108B1084600E0204665
:100B50002860049800280DD0002A02DD0098884201
:100B600008D0081B0094CDE901043246694604A868
:100B7000FFF7BAFF06B070BDA70A0008C50A000853
:100B8000390E00082DE9F04791460F46804604468D
:100B9000002614F8015B2DB100F04AF90068405DB1
:100BA000C007F6D12B2D02D02D2D18D0641E4A4639
:100BB0003946204600F049F927B13968A14201D1F0
:100BC000C7F8008071054FF002040BD540420028A1
:100BD00003DD02F0A5FA0460A007BDE8F08746F443
:100BE0008066E4E70028F8DA02F09AFA04606FF011
:100BF0000040F2E710B5141E73F1000408DA401C3F
:100C000041F1000192185B411A4301D120F001002B
:100C100010BD2DE9F04D92469B4611B1B1FA81F21B
:100C200002E0B0FA80F220329046FFF70BFF044654
:100C30000F4640EA0A0041EA0B0153465A46084370
:100C400013D0114653EA010019D0C8F140025046B2
:100C5000FFF707FF05460E46504659464246FFF746
:100C6000F1FE084305D0012004E020463946BDE8E6
:100C7000F08D0020054346EAE0762C4337430A987E
:100C80006305E40AA0EB08000022FD0A44EA475489
:100C90000A3002D500200146E9E701051019694133
:100CA000DDE9084500196941BDE8F04DA2E72DE9ED
:100CB000F04D81EA030404F0004B21F00045144696
:100CC0004FF0000A23F0004150EA050220D054EA18
:100CD00001021DD0C5F30A570246C5F31303C1F341
:100CE0001300C1F30A5640F4801543F48013A7EBB8
:100CF0000608101BD64608F2FD3873EB050002D338
:100D000008F1010801E092185B41B8F1000F03DA25
:100D100000200146BDE8F08D00204FF4801106460A
:100D200084460EE0171B73EB050705D3121B63EB1C
:100D3000050306434CEA010C49084FEA30009218BB
:100D40005B4150EA0107EDD152EA030012D082EA7A
:100D5000040083EA0501084305D0101BAB4106D20D
:100D60000122002306E000224FF0004302E06FF072
:100D7000010253101AEB06004CEB085110EB0A006D
:100D800041EB0B01BDE8F04DFFF734BF0EB540F26B
:100D9000334202920022CDE900221346FFF739FFC9
:100DA00003B000BDC1F30A52C1F3130140F2FF3397
:100DB00041F480119A4202DA00200146704740F265
:100DC00033439A42A2F2334202DC5242FFF749BE59
:100DD000FFF738BE01F0004330B421F0004150EA83
:100DE000010206D00A0DA2F56072C1F31301002AB8
:100DF00002DC30BC00207047440F44EAC104C1004B
:100E0000E01830BC00EBC25000F06EB8064C074D45
:100E100006E0E06840F0010394E8070098471034CA
:100E2000AC42F6D3FFF7BCF95C4700087C470008EA
:100E3000004870470047000810B50446FFF7F8FF68
:100E40000068005D00F0010010BD2DE9F05F8246F2
:100E50000078002715468B460AF10104B946302870
:100E600001D09DB113E014F8010B0127782803D0BD
:100E7000582801D045B10AE00DB1102D07D1002747
:100E8000102514F8010B02E0082500E00A250026D1
:100E9000B0460EE005FB080005FB06F1012701EB5B
:100EA00010461FFA80F8B6F5803F00D3B94614F813
:100EB000010B294600F04FF80028EBDABBF1000FD8
:100EC00005D00FB1641E00E05446CBF80040B9F1E4
:100ED000000F06D002F024F902210160C81EBDE80F
:100EE000F09F48EA0640FAE70029A8BF7047401C77
:100EF000490008BF20F00100704710B4B0FA80FC30
:100F000000FA0CF050EA010404BF10BC704749B16C
:100F1000CCF1200421FA04F411FA0CF118BF0121DC
:100F200021430843A3EB0C01CB1D4FEA00614FEABC
:100F3000102042BF002010BC704700EBC35010448B
:100F40000029A4BF10BC7047401C490008BF20F016
:100F5000010010BC70473A2800D2303820F020023F
:100F6000412A01D3A2F13700884201D34FF0FF306C
:100F70007047FEE72DE9FF4FFFB098469146824645
:100F8000DDF830B2FFF75CF9642190FBF1F201FB70
:100F90001202002001464CAB65AC01AD1AAE33AF76
:100FA00019542154295431543954401C6428F7DB16
:100FB00040A1204602F090F83FA14CA8FFF776F937
:100FC00065A94CA8FFF772F93CA101A8FFF76EF9DB
:100FD0004CA901A8FFF76AF93EA101A8FFF766F93D
:100FE000494601A8FFF762F93AA101A8FFF75EF9A7
:100FF000414601A8FFF75AF937A101A8FFF756F9B2
:1010000037A101A8FFF752F936A101A8FFF74EF961
:1010100035A11AA8FFF74AF951461AA8FFF746F971
:1010200035A11AA8FFF742F91AA88099FFF73EF9EF
:1010300032A11AA8FFF73AF932A133A8FFF736F91F
:10104000594633A8FFF732F932A133A8FFF72EF93A
:10105000052441F2883500232A4630A101A80094D6
:1010600001F058FB4FF47A76304600F0BFF802F0FA
:1010700081FE00232A462AA11AA8009401F04AFB07
:10108000304600F0B3F802F075FE00232A4623A193
:1010900033A8009401F03EFB304600F0A7F802F0C0
:1010A00069FE23490120886008700DF5037DBDE8C5
:1010B000F08F0000256400004553500041542B4D33
:1010C000515454555345524346473D302C312C2200
:1010D00000000000222C2200222C302C302C00009A
:1010E000222200000D0A000041542B4D515454435C
:1010F0004F4E4E3D302C2200222C00002C310D0A88
:101100000000000041542B4D5154545355423D3082
:101110002C220000222C300D0A0000004F4B000052
:101120002B4D515454434F4E4E45435445440000BB
:101130001400002070472DE9F0410446876D00F04F
:1011400061F9064694F835000025022806D0802073
:10115000606584F834500120BDE8F08120680168A2
:1011600021F0160101602068416921F08001416190
:10117000206C08B9A06C20B12068016821F008013A
:1011800001602068016821F0010101600CE000F0BD
:1011900039F9801B052807D920206065032084F8D1
:1011A000350084F83450D7E720680068C007EED1D6
:1011B00094F85C103F208840B860012084F8350026
:1011C00084F834500020C7E790F83510022903D086
:1011D0008021416501207047052180F835100068A5
:1011E000016821F0010101600020704770B50446DC
:1011F00000F008F90546601C02D004480078044459
:1012000000F000F9401BA042FAD370BD6C00002032
:101210002DE9F84FDFF8B8A1002201240AF1040BF0
:1012200003254FF00F090BF1040E00BF0B6804FA01
:1012300002F63340B34273D10F7907F00307012F51
:1012400001D0022F16D187684FEA420805FA08FC40
:1012500027EA0C07D1F80CC00CFA08FC4CEA070C82
:10126000C0F808C04768B7430E79C6F30016964029
:101270003E4346600E79F643B6070DD0C768560068
:1012800005FA06FC27EA0C07D1F808C00CFA06FCA0
:101290004CEA070CC0F80CC00E7906F00306022ECB
:1012A00010D1D60800EB8608D8F8206057074FEA1F
:1012B000D76C09FA0CF7BE430F6907FA0CF73743EE
:1012C000C8F8207006684FEA420C05FA0CF7BE43D6
:1012D0000F7907F0030707FA0CF7374307604E68EA
:1012E00016F4403F6DD03B4E376847F48047376077
:1012F000366822F0030706F480460096364E07EB68
:10130000060CDCF8086897073F0F09FA07F826EA89
:101310000806DFF8C880404503D14FF000081EE002
:101320004FE0DFF8BC80404502D14FF0010816E0E5
:10133000DFF8B080404502D14FF002080FE0DFF83F
:10134000A880404502D14FF0030808E0DFF89C80F8
:10135000404502D14FF0040801E04FF0070808FAB9
:1013600007F848EA0608CCF80888DAF8006057461B
:10137000D1F804C09E435FEACC3C00D51E433E60DA
:10138000DBF800605F46D1F804C09E435FEA8C3C06
:1013900000D51E433E60DEF800607746D1F804C0F9
:1013A0009E435FEACC2C00D51E433E60084F0C37AD
:1013B0003E68D1F804C09E435FEA8C2C00D51E43E2
:1013C0003E60521C102AFFF431AFBDE8F88F0000D8
:1013D000003C01404438024000300140000002401F
:1013E0000004024000080240000C024000100240CD
:1013F0000069084000D0012070470AB18161704740
:101400000904FBE701488068704700006C00002079
:101410000248816802781144816070476C000020A6
:101420000B4810B5016841F400710160016841F496
:1014300080610160016841F480710160032000F067
:101440006FF8002000F006F800F024F8002010BD2E
:10145000003C024070B50D4D04464FF47A71287877
:10146000B1FBF0F00A490968B1FBF0F000F00AFBAB
:1014700048B9102C07D200222146501E00F030F847
:1014800000206C6070BD012070BD00006C00002069
:10149000780000200A4808B5016841F480410160E5
:1014A000006800F4804000900548001F016841F08A
:1014B00080510160006800F08050009008BD00007D
:1014C00044380240002809DB00F01F02012191404E
:1014D0004009800000F1E020C0F8001170470000D2
:1014E000F0B40E4B1B680C46C3F30223C3F107058F
:1014F000042D00D90425191D072901D2002300E07D
:10150000DB1E012606FA05F1491E214099409E4046
:10151000761E16403143F0BC01F0F2BD0CED00E048
:10152000064900F0070208684FF6FF03184040EA3A
:101530000220034A10430860704700000CED00E0F1
:101540000000FA052DE9F0470E46050065D0DFF8EA
:101550001481D8F80000F7B200F00700B04207D2BB
:1015600088F80070D8F8000000F00700B04254D1AD
:1015700028683D4C810712D5400703D5206840F408
:10158000E05020602878000703D5206840F46040D0
:1015900020602068A96820F0F000084320602878C7
:1015A000C0072DD0304968680839012812D00228B8
:1015B00013D0032811D00968890700292DDA216882
:1015C00021F0030101432160FFF71CFF814641F236
:1015D000883A0EE009688903EFE709688901ECE7BA
:1015E000FFF710FFA0EB0901514502D90320BDE828
:1015F000F0872068696800F00C00B0EB810FEFD134
:10160000D8F80010404601F00701B14207D9077031
:10161000006800F00700B04201D00120E7E7287819
:10162000400705D52068E96820F4E05008432060B1
:101630002878000706D52068296920F4604040EA30
:10164000C100206000F038F82168084AC1F3031196
:10165000515CC8400649086006480068FFF7FAFE7A
:101660000020C4E7003C02400838024066460008FB
:1016700078000020700000200448054900680968CF
:10168000044AC1F38221515CC840704778000020B1
:101690000838024076460008044805490068096891
:1016A000044AC1F34231515CC840704778000020C1
:1016B0000838024076460008154810B5006810F05A
:1016C0000C02144813D04110042A0FD0082A0ED15E
:1016D0000F4C241F2268236802F03F025B0207D5EB
:1016E0002068C0F38810A0FB010106E0084610BD89
:1016F0002168C1F38811A1FB00010023FEF768FDFA
:101700002168C1F30141491C4900B0FBF1F010BD53
:10171000083802400024F4002DE9F84F04006ED090
:101720002078DFF84C93C007A9F104054AD009F1ED
:1017300004000168C1F38101012908D00068C0F3E9
:10174000810002280AD1D9F80000400206D5286895
:10175000800337D560680028E1D033E06068B0F5D9
:10176000803F10D0B0F5A02F286810D020F4803032
:101770002860286820F4802028606068A8B1FFF7FE
:1017800041FE06460DE0286840F48030F4E740F45E
:1017900080202860F7E700BFFFF734FE801B642835
:1017A00073D828688003F7D50CE0FFF72BFE0646B8
:1017B00005E000BFFFF726FE801B6428F0D82868EC
:1017C0008003F7D42078DFF8AC8280074FF0000A5E
:1017D0003ED5A748001D016811F00C0F08D0006825
:1017E000C0F3810002280BD1D9F80000400207D4D1
:1017F0002868800716D5E068012800D112E033E19F
:10180000E068B8B10120C8F80000FFF7FBFD06460C
:1018100005E000BFFFF7F6FD801B0228C0D828684E
:101820008007F7D52868216920F0F80040EAC10058
:1018300028600DE0C8F800A0FFF7E4FD064604E0CC
:10184000FFF7E0FD801B02281FD828688007F7D427
:101850002078000722D5864F87486169703771B1BB
:1018600001210160FFF7CEFD064604E0FFF7CAFD47
:10187000801B022809D838688007F7D50EE0C0F829
:1018800000A0FFF7BFFD064605E082E0FFF7BAFDC6
:10189000801B02287DD838688007F7D4207840075D
:1018A00068D5DFF8CCB100270BF13C0BDBF800006A
:1018B000C0000BD4DBF8001041F08051CBF80010D1
:1018C000DBF80000012700F0805000906B4E30687C
:1018D000C00510D4306840F480703060FFF792FD8E
:1018E000009005E0FFF78EFD0099401A022850D8BD
:1018F0003068C005F6D55E4EA0686C3601280FD062
:101900000528306810D020F001003060306820F0E9
:1019100004003060A068B8B1FFF774FD00900FE0DC
:10192000306840F00100F4E740F004003060F7E771
:10193000FFF768FD0099411A41F28830814266D86C
:1019400030688007F4D50EE0FFF75CFD009007E0FB
:10195000FFF758FD0099411A41F28830814256D86C
:1019600030688007F4D42FB1DBF8001021F08051EB
:10197000CBF80010A069C8B33D49091D0968C1F33F
:10198000810102294AD00228504607D0C8F86000D9
:1019900000E03CE0FFF736FD04463BE04746C8F870
:1019A0006000FFF72FFD064605E000BFFFF72AFDA8
:1019B000801B02282BD828688001F7D4D4E90701BE
:1019C0000843A16A2E4A490802EB0141626A41EAD2
:1019D0008211084394F82C1040EA0161C9F8001004
:1019E00001203866FFF70EFD044606E03EE000BF2A
:1019F000FFF708FD001B022809D828688001F7D5E9
:101A000034E000BFFFF7FEFC001B022802D90320D0
:101A1000BDE8F88F28688001F4D427E00128F7D0CA
:101A2000D9F80000E26900F4800191421CD1226AD9
:101A300000F03F01914217D147F6C071626A014040
:101A4000B1EB821F10D1A26A4FF0FF3300F4403196
:101A500003EB5202B1EB024F06D194F82C1000F0C8
:101A60007060B0EB016F01D00120D1E70020CFE71B
:101A70000438024000004742800E47420070004098
:101A80000000FFFF10B5401EB0F1807F01D30120A0
:101A900010BD4FF0E02460610F21601701F030FBB2
:101AA0000020A06107202061002010BD10B50400B7
:101AB00003D094F83D0010B107E0012010BD0020D4
:101AC00084F83C00204600F01FF8022084F83D0016
:101AD000211D206801F0CEF8012084F8460084F82A
:101AE0003E0084F83F0084F8400084F8410084F808
:101AF000420084F8430084F8440084F8450084F8E8
:101B00003D00002010BD000008B50068064988426D
:101B100008D10648016841F480310160006800F492
:101B20008030009008BD0000004001404438024071
:101B300090F83D10012901D001207047022180F862
:101B40003D1000680E4988420ED0B0F1804F0BD096
:101B50000C49884208D00C49884205D00B4988427C
:101B600002D00B49884204D1816801F0070106299F
:101B700003D0016841F001010160002070470000BE
:101B8000000001400004004000080040000C00403C
:101B90000040014070B5044690F83C000025012843
:101BA00017D0012684F83C60022084F83D002068AC
:101BB000826822F0770222F47F428260086850280F
:101BC00038D00DDC20284FD005DC90B3102811D17F
:101BD0004AE0022070BD302846D040280AD13BE0C0
:101BE00060282FD070280DD0B0F5805F03D0B0F5FD
:101BF000005F12D0012584F83D60002084F83C008D
:101C0000284670BDCB68D1E90121206801F07EF83B
:101C10002068816841F0770109E0CB68D1E90121B2
:101C2000206801F073F82068816841F48041816088
:101C3000E1E719E0CA684968206801F079F85021A5
:101C4000206806E0CA684968206801F082F86021CF
:101C5000206801F065F8CEE7CA684968206801F09D
:101C600067F840212068F4E7226801461046F0E753
:101C700070477047F8B5016804460868CA684B6940
:101C800010F00F0F4FF0000559D003F0010602F4D9
:101C90009077374365D0C10705D0D10503D5216CB6
:101CA00041F001012164410705D5D90703D0216C1A
:101CB00041F002012164810705D5D90703D0216CC9
:101CC00041F004012164010707D502F020013143EE
:101CD00003D0216C41F008012164216C00293AD025
:101CE000800604D5900602D5204601F080F82068D1
:101CF0004069216CC0F38010090700D460B320460E
:101D000001F04EF820684069400621D52068143063
:101D100050E8001F21F0400140E80012002AF5D1F0
:101D2000A06BA8B16C490165A06BFFF74DFA0028C4
:101D300011D0A06B016D01B0BDE8F04008478306EB
:101D40000FD593060DD52046BDE8F84001F04FB8F9
:101D50002046FFF78EFFF8BD2046FFF78AFF256477
:101D6000F8BD266B2023012E79D1C60677D5D6067D
:101D700075D50868486800904869400640D5A16B51
:101D8000086840680004000CEAD0A28D8242E7D9BE
:101D9000E085C869B0F5807F2DD020680C3050E810
:101DA000001F21F4807140E80012002AF5D120685C
:101DB000143050E8001F21F0010140E80012002A11
:101DC000F5D12068143050E8001F21F0400140E8B0
:101DD0000012002AF5D184F83E30256320680C30CB
:101DE00050E8001F21F0100140E80012002AF5D150
:101DF000A06BFFF7A0F9A08DE18D401A81B229E018
:101E0000A08DE18D401A81B2E08D0028A8D0002974
:101E1000A6D020680C3050E8002F22F4907240E8E1
:101E20000026002EF5D12068143050E8002F22F053
:101E3000010240E80026002EF5D184F83E302563EB
:101E400020680C3050E8002F22F0100240E80023F8
:101E5000002BF5D12046FFF70BFFF8BDFFE7050685
:101E60002BD5150629D594F83D002128F5D1A06879
:101E7000B0F5805F01D12069B0B1206A411C2162B8
:101E8000216800784860E08C401E0004000CE0846B
:101E9000E3D12068C16821F08001C1602068C16879
:101EA00041F04001C160D8E7206A0088C0F3080013
:101EB0004860206A801C2062E5E74006CDD55006C8
:101EC000CBD5CA68204622F04002CA6084F83D3073
:101ED00000F02FF9C1E70000912D000870B5040053
:101EE00004D094F83D00002510B106E0012070BD3B
:101EF00084F83C50204600F023F8242084F83D006C
:101F00002068C16821F40051C160204600F0D0FF74
:101F10002068016921F4904101612068416921F044
:101F20002A0141612068C16841F40051C160256403
:101F3000202084F83D0084F83E00002070BD0000A1
:101F400030B587B0044614216846FEF7A4F92B4D3E
:101F5000226800212A4802230324AA4223D1284AC6
:101F60001032156845F400351560126802F400322D
:101F70000592026842F0010202600068CDE9021495
:101F800000F0010005900C20CDE90003072004902B
:101F900069461C48FFF73CF9002211462620FFF74E
:101FA0009FFA262025E0184DAA4224D1144A143263
:101FB000156845F020051560126802F020020592B0
:101FC000026842F0040202600068CDE9021400F0E9
:101FD00004000590C020CDE9000308200490694664
:101FE0000A48FFF715F9002211464720FFF778FA53
:101FF0004720FFF767FA07B030BD000000440040FB
:102000003038024000000240001401400008024045
:1020100090F83E30202B0ED159B152B190F83C309F
:10202000012B08D0012380F83C300023036300F02B
:10203000C5BF012070470220704700000D4910B550
:102040008A680D4972B1012A12D1006888420FD105
:1020500000F090F907490122BDE81040091D07482A
:10206000FFF7D6BF0068884202D100F077F9F1E7A8
:1020700010BD0000140000200014014020010020C9
:102080002DE9F843044690F83D001F4616460D46DC
:1020900020284CD1C5B1BEB194F83C00012846D0EF
:1020A000012084F83C004FF00008C4F84080212053
:1020B00084F83D00FFF7A6F9A6848146E684A0686F
:1020C000B0F5805F03D004E00120BDE8F88320690B
:1020D00028B12E465FF0000584F83C800EE0002613
:1020E000FAE78021204600F084FFA0B9AEB116F8CF
:1020F000010B21684860E08C401EE084E08C4B4678
:102100004FF0000200970028EBD14FF0400120462D
:1021100000F06FFF30B10320D7E735F8020BC0F3B2
:102120000800E6E7202084F83D000020CDE70220EB
:10213000CBE77047FEE700002DE9F04186B014219F
:102140006846FEF7A8F827480024016841F080019E
:102150000160016801F080010591016841F0010111
:102160000160016801F001010591016841F0100171
:102170000160016801F010010591016841F004015E
:1021800001600068184F00F004004FF4C06505902E
:10219000002229463846FFF730F9DFF85080BE1597
:1021A000002231464046FFF728F900950125CDE988
:1021B0000154694638460394FFF72AF80096CDE9A2
:1021C0000154694640460394FFF722F86802CDE9BE
:1021D0000004694640460294FFF71AF806B0BDE8CD
:1021E000F081000030380240001002400000024040
:1021F0001FB5002110480091019102910D4A0391F1
:1022000002606322C0E901214FF6FE72C0E903219A
:102210008161FFF74BFC08B172B6FEE74FF48050C6
:10222000009069460448FFF7B5FC002801D072B65B
:10223000FEE71FBD0040014094000020FEE7FEE7DE
:1022400070B501F0A9FC2B4C2064B0B12AA000F0BD
:102250001BFF2CA1206C01F091FC606400692BA194
:10226000FEF730F82A4E4FF4007558B129A000F05F
:102270000BFF00200246606110E0BDE8704027A01F
:1022800000F002BF606C29A10069FEF71BF848B19D
:1022900027A000F0F9FE0120024660612946304681
:1022A000FFF7ABF824A1206C01F068FCA064C168C2
:1022B000102908D1016921A000F0E6FEA06C006998
:1022C000FEF708FAA06120A1206C01F057FCE06441
:1022D000C168102908D101691CA000F0D5FEE06C8E
:1022E0000069FEF7F7F9E061206CBDE8704001F08D
:1022F00021BC0000140000204A534F4E204F4B4594
:102300000D0A000044656E3100000000300000003E
:10231000001002404F464620310D0A004A534F4EEE
:10232000206572726F720D0A00000000310000001B
:102330004F4E20310D0A00005831000058313A2527
:1023400073200D0A000000005832000058323A2570
:1023500073200D0A00000000704700000349044B81
:10236000C8780A791A54401CC870704714000020BD
:102370006401002070B5264C264A20462379006D62
:10238000411C0A2B135401D0216570BD0025214941
:1023900021A0256500F078FE23A11E48FDF792FFDD
:1023A00028B125A000F070FE0120607026E026A173
:1023B0001848FDF787FF20B128A000F065FE657082
:1023C0001CE02BA11348FDF77DFFD0B12CA11148D3
:1023D000FDF7AEFF2AA10020FDF7AAFF28A10020EB
:1023E000FDF7A6FF27A10020FDF7A2FF0546014645
:1023F00025A000F049FE2846FFF722FFFFF702F86C
:10240000E060FEF7FFFFE060BDE8704001F0A2BCB5
:10241000140000205803002044617461204D515481
:10242000543A25730D0A00004D515454434F4E4EFB
:102430004543544544000000436F6E6E656374204D
:102440004D5154540D0A00004D51545444495343C6
:102450004F4E4E4543544544000000004E6F7420DB
:10246000436F6E6E656374204D5154540D0A000025
:102470002B4D5154545355425245435600000000D1
:102480002C0000000A00000044415441204D5154EA
:10249000543A2025730D0A00704700002DE9FF4FC4
:1024A000ADF5637D8B46002001461AAB01AC33AD20
:1024B0000DF5987C65AE7EAF97AA0DF530790DF5D8
:1024C000497A1954215429540CF8001031543954C4
:1024D000115409F800100AF80010401C6428F0DBC1
:1024E0005A4656A1284600F0F7FD54A14CA8E59A9B
:1024F00000F0F2FD51A165A8E69A00F0EDFD4FA1B4
:102500007EA8F09A00F0E8FD4CA197A8F19A00F09F
:10251000E3FD4AA1B0A8F29A00F0DEFD48A101A8AF
:10252000FDF7C4FE33A901A8FDF7C0FE46A101A82E
:10253000FDF7BCFE45A101A8FDF7B8FE4CA901A816
:10254000FDF7B4FE40A101A8FDF7B0FE41A101A82E
:10255000FDF7ACFE65A901A8FDF7A8FE3AA101A808
:10256000FDF7A4FE3EA101A8FDF7A0FE7EA901A8EB
:10257000FDF79CFE34A101A8FDF798FE3AA101A841
:10258000FDF794FE97A901A8FDF790FE2EA101A8E2
:10259000FDF78CFE36A101A8FDF788FEB0A901A8C1
:1025A000FDF784FE35A101A8FDF780FE34A101A846
:1025B000FDF77CFE01A933A000F066FD01A8FDF740
:1025C00093FE02461DA1C9A800F086FD31A11AA8FC
:1025D000FDF76CFE1AA8E399FDF768FE1AA11AA888
:1025E000FDF764FEC9A91AA8FDF760FE2EA11AA87E
:1025F000FDF75CFE1AA92EA000F046FD032041F273
:102600008835009000232A462DA11AA800F02EF943
:1026100001F0B0FB2C4C207848B905200090002335
:102620002A462AA101A800F021F901F0A3FB01200C
:10263000A0600DF5677DBDE8F08F00002564000007
:102640007B224B43223A2200222C0000224E4422BD
:102650003A2200002244656E31223A220000000036
:10266000225831223A220000225832223A22000017
:1026700022546F6E67223A2200000000227D000083
:102680000D0A0000446174614A736F6E3A2025732D
:102690000A00000041542B4D5154545055425241B0
:1026A000573D302C220000002C302C310D0A000048
:1026B0004D5154545055425241573A2025730A0007
:1026C0004F4B0D0A0D0A3E00140000202B4D5154B3
:1026D000545055423A4F4B003EB5FEF793FE0C4C1A
:1026E000E168401AB0F57A7F10D3607801280AD1EA
:1026F00004F1180007C88DE80700D4E90423616DD0
:10270000E06BFFF7CBFEFEF77DFEE0603EBD000014
:10271000140000202DE9FF5F1E4690468246DDF83A
:1027200038B001F027FBFEF76DFEDFF8C8900025FA
:10273000C9F80C004FF496700446C9F8086000F020
:1027400037FD0646002007463754401C2146A0426C
:10275000FAD3534628A2304600F0A6FC3046FDF7D7
:10276000C3FD82B24FF47A7A534631462348FFF7CD
:1027700087FC314622A000F087FCFEF743FE4C4662
:10278000C9F80C00FEF73EFEE168411A414510D33E
:1027900030466D1CFDF7A8FD82B2534631461748FE
:1027A000FFF76EFC31461DA000F06EFCFEF72AFE1E
:1027B000E060124801994430FDF784FD40B120A04B
:1027C00000F062FC01F0D6FA01202070607008E091
:1027D0005D45D7D31FA000F057FC2770677001F04C
:1027E000C9FAFEF70FFEE06004B03046BDE8F05FC6
:1027F00000F09ABC14000020257300002001002086
:1028000053656E642041542D436F6D6D616E64732A
:1028100020446174613A2025730D0A0053656E648B
:102820002041542D436F6D6D616E6473204461745B
:10283000612054696D654F75743A2025730D0A0047
:102840004D51545420436F6E6E656374204F4B0D91
:102850000A0000004D51545420436F6E6E6563743E
:10286000204552524F520D0A000000002DE9FF5F33
:102870001E4690468246DDF838B001F07BFAFEF73E
:10288000C1FDDFF8CC900025C9F80C004FF496701C
:102890000446C9F8086000F08BFC06460020074695
:1028A0003754401C2146A042FAD3534629A2304651
:1028B00000F0FAFB3046FDF717FD82B24FF47A7A4A
:1028C000534631462448FFF7DBFB314623A000F096
:1028D000DBFBFEF797FD4C46C9F80C004FF00109F1
:1028E000FEF790FDE168411A414510D330466D1C5A
:1028F000FDF7FAFC82B2534631461748FFF7C0FB9A
:1029000031461DA000F0C0FBFEF77CFDE0601248E0
:1029100001994430FDF7D6FC40B121A000F0B4FB92
:1029200001F028FA277084F8019008E05D45D7D3BC
:102930001FA000F0A9FB84F8009001F01BFAFEF73D
:1029400061FDE06004B03046BDE8F05F00F0ECBB34
:1029500014000020257300002001002053656E64E0
:102960002041542D436F6D6D616E6473204461741A
:10297000613A2025730D0A0053656E642041542D81
:10298000436F6D6D616E64732053656E64204461A6
:102990007461204D5154543A2025730D0A000000F3
:1029A00053454E44204D515454204F4B0D0A0000C6
:1029B00053454E44204D515454204552524F520DD0
:1029C0000A0000002DE9F0418EB01F4615468846EA
:1029D0000646FEF717FD234C00210A46C4E90270A3
:1029E00068464254491C3229FBDD33461EA232217F
:1029F00000F05AFB6846FDF777FC82B24FF47A7616
:102A0000334669461A48FFF73BFB694619A000F0B8
:102A10003BFBFEF7F7FCE060FEF7F4FCE168401AD0
:102A2000A8420FD36846FDF75FFC82B23346694681
:102A30000F48FFF725FB694616A000F025FBFEF7BF
:102A4000E1FCE0600A4841464430FDF73BFC0028C9
:102A5000E2D0414619A000F017FB01F08BF90EB04F
:102A6000BDE8F0811400002025730D0A000000006D
:102A70002001002053656E6420415420436F6D6D2A
:102A8000616E642053657474696E673A2025730D16
:102A90000A00000053656E6420415420436F6D6D41
:102AA000616E64732053657474696E672054696D38
:102AB0006553656E643A2025730D0A005265706F88
:102AC0006E73652053657474696E673A2025730DC3
:102AD0000A00000070B542F21074002322461EA1C5
:102AE0001EA0FFF76FFF40F6B8352846FEF77EFBC5
:102AF0004FF4FA660023324617A11BA0FFF762FFCE
:102B00002846FEF773FB0023324613A118A0FFF7F7
:102B100059FF2846FEF76AFB002332460EA116A095
:102B2000FFF750FF2846FEF761FB0023224616A15F
:102B300019A0FFF747FF2846FEF758FB002332464F
:102B400005A11EA0FFF73EFF2846FEF74FFB1F49D9
:102B50000020087070BD00004F4B000041542B5204
:102B600053540D0A0000000041540D0A00000000FB
:102B7000415445300D0A000041542B43574D4F44FA
:102B8000453D312C310D0A005749464920434F4EEF
:102B90004E4543544544000041542B43574A41504D
:102BA0003D224D616E682048756E67222C223131BE
:102BB000303232303030220D0A00000041542B43B5
:102BC00049504D55583D300D0A00000014000020BA
:102BD000FEF71EBC30B593B030216846FDF75BFBB5
:102BE00014210CA8FDF757FB1C480025016841F093
:102BF00080510160006800F0805011901848016811
:102C000041F4404101600068022400F4404011900A
:102C100001200090000401908001CDE9064008AA3F
:102C20000420642182E813000B906846FEF774FDCF
:102C300008B172B6FEE70CA90F2081E831004FF40D
:102C40008050CDE90F0503210CA8FEF77BFC00287E
:102C500001D072B6FEE713B030BD0000403802402C
:102C6000007000400248016841F470010160704743
:102C700088ED00E0F0B502681D4B1E4C9F031E4D11
:102C80001E4E984207D0B84205D0A04203D0A842B9
:102C900001D0B04204D122F0700C4A6842EA0C0222
:102CA000984210D0B8420ED0A0420CD0A8420AD010
:102CB000B04208D0124CA04205D0124CA04202D023
:102CC000114CA04203D122F44074CA6822434C69DB
:102CD00022F08002224302608A68C2620A6882622D
:102CE000984201D10969016301214161F0BD0000F1
:102CF000000001400004004000080040000C0040BB
:102D000000400140004401400048014010B5846883
:102D100042EA032224F47F440A432243826010BD26
:102D2000826822F070020A4342F007018160704716
:102D300010B5036A046A24F001040462846924F073
:102D4000F00444EA021423F00A020A438461026296
:102D500010BD10B5036A23F0100303628369046A8F
:102D600023F4704343EA023224F0A00343EA011142
:102D70008261016210BD00000448D0E906121144CE
:102D80006422B1FBF2F101627047000014000020E0
:102D900010B5806B0021C185C184FEF76AFF10BDAC
:102DA00001680C3151E8002F22F4907241E80023B1
:102DB000002BF5D10168143151E8002F22F00102F7
:102DC00041E80023002BF5D1016B012909D10168ED
:102DD0000C3151E8002F22F0100241E80023002BB3
:102DE000F5D1202180F83E1000210163704708B51D
:102DF00090F83E10222901D0022008BD82684FF4CD
:102E000080539A4201D1016921B1816A9A421BD053
:102E10004AB10AE00268816A5268C2F308020A8075
:102E2000816A891C08E0026972B10268526802F086
:102E30007F020A70816A491C8162C18D491E0904A2
:102E4000090CC18503D019E002685268F1E70168F6
:102E5000CA6822F02002CA600168CA6822F480723F
:102E6000CA6001684A6922F001024A61202180F8A3
:102E70003E10016B012903D0FFF7E0F8002008BDE8
:102E80000021016301680C3151E8002F22F010028B
:102E900041E80023002BF5D101680A68D20602D56B
:102EA0000A6849680091818DFEF7E2FEE6E70000BE
:102EB00070B5044600680169E26821F4405111438D
:102EC00001612169A068E26908436169114308430F
:102ED0002168CA6849F20C639A430243CA602068B9
:102EE0004169A26921F4407111434161314920686F
:102EF000884202D03049884202D1FEF7CDFB01E082
:102F0000FEF7BAFBE2690023192164253226B2F5E7
:102F1000004F626828D0A0FB0101930F9200FDF7DB
:102F200057F90146B0FBF5F06FF01802504301EB82
:102F3000800006EB0010B0FBF5F000F0F002B1FBF2
:102F4000F5F002EB0012B1FBF5F06FF018035843F7
:102F500001EB800006EB0010B0FBF5F000F00F0075
:102F600021681044886070BDA0FB010192185B418C
:102F7000FDF72EF90146B0FBF5F00201B1FBF5F0CB
:102F80006FF01803584301EB800006EBC000B0FB64
:102F9000F5F000F0F80002EB4002B1FBF5F0584309
:102FA00001EB800006EBC000B0FBF5F000F007007D
:102FB000D6E70000001001400014014081628285C4
:102FC000C28500210164222280F83E2080F83C1056
:102FD0000168CA6842F48072CA6001684A6942F0B6
:102FE00001024A610068C16841F02001C16000200F
:102FF00070472DE9F041984617460E460446069D57
:1030000027E0681C25D02DB1FEF7FCF9A0EB0800E5
:10301000A8421ED920680C3050E8001F21F4D0715E
:1030200040E80012002AF5D12068143050E8001F53
:1030300021F0010140E80012002AF5D1202084F897
:103040003D0084F83E00002084F83C000320BDE8E9
:10305000F0812068006836EA000004D00020B84201
:10306000CFD00020F3E70120F9E700000148FEF788
:1030700001BE0000DC0000200148FEF7FBBD00009F
:1030800020010020FEE700000FB4054B10B503A996
:10309000044A029800F08EF910BC5DF814FB0000A1
:1030A000C93D0008840000200FB41CB50246002072
:1030B00007AC00290BD0491ECDE90021054B6A461B
:1030C0002146069800F076F9009A002111701CBC88
:1030D0005DF814FBE33A00080FB4084B10B504A9DF
:1030E00002AA039800F066F9044602A9002000F045
:1030F00003FD204610BC5DF814FB0000F93A0008FF
:103100000907090E002804DB00F1E02080F8001414
:10311000704700F00F0000F1E02080F8141D7047A8
:10312000004870479000002030B528B1144C031FB0
:10313000002021680A4605E0084630BD9A4203D8BF
:1031400010465268002AF9D1002800D041680BD0FF
:103150000468A3EB0005A54204D11B681C44034688
:10316000046002E0436000E023603AB11C68D51AB5
:10317000A54203D115682C441C6052685A6030BDCA
:10318000880000200000000000B583B09FED060B12
:103190000A4601468DED000B6846FDF7C0FC9DED2B
:1031A000000B03B000BD00000000000000000000A4
:1031B0002DE9F04782460F4C10480D4E0E4F001B74
:1031C0004FF0000820F007054FF0010900221146DA
:1031D000504600F043FE002802D1306810B10020B4
:1031E000BDE8F0873C60C4E90058C6F80090EDE700
:1031F0008C0000205405002088000020500700208B
:1032000002E008C8121F08C1002AFAD170477047AF
:10321000002001E001C1121F002AFBD1704700000D
:103220002DE9FF5F82B00021DDE90430020DDDF8F9
:1032300040B0034318D044F61050A2F2FF3242438C
:103240001514119801281FD0A5EB0B00401C5FEA54
:10325000000A4FF000064E4FDFF83891B046504656
:1032600015D5CAF1000413E0119801244AA30128DE
:1032700001D16FEA0B010298119AC0E90031C0E94F
:10328000024206B0BDE8F09FCBF10000DFE7044644
:103290000021404A491842EB0450CDE9001012E0E9
:1032A000E00707D032463B4640464946FDF7C6FA9E
:1032B0008046894632463B4610461946FDF7BEFA1F
:1032C00006460F466410002CEAD1DDE90401DDE971
:1032D0000023BAF1000F06DAFDF7B0FA42464B467A
:1032E000FDF7ACFA05E0FDF7E2FC42464B46FDF780
:1032F000DEFC04460E460022284BFDF775FB03D882
:103300004FF0FF30014607E00022254B20463146B2
:10331000FDF7EDF9FDF746FD102409E0002C0ADB6E
:103320000A220023FCF754FF039B30321A55641E17
:1033300050EA0102F2D1641C039AC4F1110314444F
:10334000119A012A03D0012208430DD10AE0084353
:1033500004D000204FF0110B119072E7A3EB0B0586
:103360006D1E0DE05B4504DD4FF0000205F1010527
:1033700004E003DA4FF00002A5F10105002AECD0C9
:1033800002981199C0E90231C0E9004579E70000CF
:10339000000014400000F03F300000000000F04347
:1033A0000000E03F30380A2801D201207047002099
:1033B000704700002DE9FF4F95B09B4689460646B1
:1033C00000250FE2252877D100242746F84A01215D
:1033D000059400E0044316F8013F203B01FA03F096
:1033E0001042F7D130782A2811D06FF02F033078AF
:1033F000A0F13002092A16D8059A44F0020402EB23
:10340000820203EB42021044761C0590EFE759F864
:10341000042B0592002A03DA504244F4005405902C
:1034200044F00204761C30782E2816D116F8010FCD
:1034300044F004042A280DD06FF02F023078A0F158
:103440003003092B09D807EB870302EB4303C718A6
:10345000761CF3E759F8047B761C30786C280FD083
:1034600006DC4C2817D068280DD06A2814D104E057
:10347000742810D07A280FD10DE044F400140AE02B
:1034800044F4801401E044F440147278824202D182
:1034900004F58014761C761C307866280BD013DC7B
:1034A000582877D009DC002875D04528F6D0462862
:1034B000F4D047281AD19DE118E0632835D064285C
:1034C00079D0652812D195E1702873D008DC67287F
:1034D000F1D069286FD06E280DD06F2806D1B5E0E5
:1034E00073282CD0752875D0782874D05A4617992F
:1034F00090476D1C75E1C4F30250022809D00328DF
:103500000DD0D9F8001004280DD00D6009F1040980
:1035100067E1D9F80010EA17C1E90052F6E7D9F8D7
:1035200000100D80F2E70D70F0E719F8041B8DF81C
:10353000001000208DF80100EA46012003E059F850
:1035400004AB4FF0FF3061074FF0000102D40DE0F3
:1035500008F101018846B9420FDA8045F8DB1AF814
:1035600008100029F4D108E008F1010188468142E1
:10357000FADB1AF808100029F6D105985B46A0EB93
:10358000080721463846179A00F094FA284400EBC1
:10359000080507E04DE029E10DE01AF8010B5A4655
:1035A00017999047B8F10108F7D25B462146384693
:1035B000179A13E142E00A220092C4F302524FF03C
:1035C000000A022A08D059F804CB032A4FEAEC710A
:1035D0000AD00DE029E02AE009F1070121F00702F5
:1035E000F2E802C1914609E00FFA8CFC4FEAEC7157
:1035F000042A03D14FFA8CFC4FEAEC71002907DA58
:103600000A460021DCF1000C61EB02012D2202E0F0
:10361000220504D52B228DF80420012203E0E207C5
:1036200001D02022F7E7904659E00A2102E010225B
:103630000DE010214FF0000A00910BE010224FF036
:10364000000A44F004040827009203E008224FF027
:10365000000A0092C4F30252022A05D059F804CBA2
:103660000021032A08D009E009F1070121F007022F
:10367000F2E802C1914605E01FFA8CFC042A01D150
:103680000CF0FF0C4FF00008220728D5702806D058
:10369000009B83F0100353EA0A0305D00EE040229A
:1036A0008DF80420012208E05CEA010206D03022F5
:1036B0008DF804208DF8050002229046009B83F0CF
:1036C000080353EA0A030AD15CEA010201D1620746
:1036D00005D530228DF804204FF001087F1E5828B0
:1036E00004D034A003900EA802900DE036A0F9E7B4
:1036F00053466046009AFCF76BFD84460398825C53
:103700000298401E029002705CEA0100F0D102981B
:1037100006A9081A00F1200A600702D524F48034B3
:1037200000E00127574502DDA7EB0A0000E000207A
:1037300000EB0A01009005984144401A0590E0030F
:1037400006D45B462146179A059800F0B3F9054464
:10375000002706E001A85A46C05D179990476D1CE6
:103760007F1C4745F6DBE0030CD55B462146179AE4
:10377000059800F09FF9054404E030205A46179957
:1037800090476D1C0099481E00900029F5DC08E068
:10379000029802995A460078491C0291179990475D
:1037A0006D1CBAF10001AAF1010AF1DC65E100002B
:1037B0000928010030313233343536373839616207
:1037C00063646566000000003031323334353637CB
:1037D00038394142434445460000000000F058F9A2
:1037E0000544761C307800287FF4ECAD19B02846EB
:1037F000BDE8F08F620700D4062709F1070222F026
:10380000070CFCE80223E14603F000485FEA080CDD
:1038100002D00FF2702C0DE05FEA045C02D50FF2CB
:10382000682C07E05FEAC47C02D00FF2602C01E054
:10383000AFF2700C4FF0FF3823F00043CDF850C0CA
:1038400065280CD006DC452809D046281DD047281D
:103850003DD13DE0662818D067287ED138E00021B0
:10386000112F01DB112000E0781CCDE9000106A931
:103870000EA8FFF7D5FCDDE90F010E9A0391002198
:10388000009207F1010A04914DE04FF000400097CB
:10389000CDE9011006A90EA8FFF7C2FCDDE90F0271
:1038A00003920E9B11990022DDF80CA00093049264
:1038B00011B9791C00EB010AB7EB0A0004D4C0F17E
:1038C000FF3007F1010A0490AAEB0700019044E0E1
:1038D000012F00DA01270021112F01DD112000E066
:1038E0003846CDE9000106A90EA8FFF799FCDDE9ED
:1038F0000F010E9A0391002104910092BA4621070C
:103900000CD40399514500DA8A46BAF1010F05DD5E
:10391000009AAAF10101515C302908D0B84202DABC
:1039200010F1040F06DA0121CDE9011015E0AAF12A
:103930000101E9E7002805DC049901440491AAEBA0
:10394000000102E0411C514500DD8A460499401AFD
:10395000401C01904FF000400290200704D40198D1
:10396000504501DBCDF8048000208DF84F0002980F
:103970000DF14F07B0F1004F25D02B200E9002988B
:103980004FF0020800280CDA404202902D200E90E1
:1039900007E00A210298FDF73FF83031029007F85E
:1039A000011DB8F10001A8F10108F2DC029800281D
:1039B000EFD1791E0E980870307800F0200040F0AA
:1039C000450007F8020D12A8C01B00F10708149863
:1039D000007800B1012000EB0A01019801EBE071D1
:1039E00005984144401A401E0590E00306D45B460A
:1039F0002146179A059800F05DF805441498007860
:103A000018B15A46179990476D1CE00324D55B46C0
:103A10002146179A059800F04DF805441CE00498DB
:103A2000002807DBDDE90301884203DD0098405CE4
:103A3000179901E0179930205A469047049805F1EC
:103A40000105401C04900198401E019004D12E20D5
:103A50005A46179990476D1CBAF10001AAF1010A64
:103A6000DDDC05E017F8010B5A46179990476D1CED
:103A7000B8F10001A8F10108F4DC5B462146179A71
:103A80000598ABE62D0000002B0000002000000090
:103A90002DE9F041044600251E461746880404D44B
:103AA00005E039462020B0476D1C641EF9D5284634
:103AB000BDE8F0812DE9F041044600251E46904600
:103AC000C80301D5302700E02027880404D505E08D
:103AD00041463846B0476D1C641EF9D52846BDE8FE
:103AE000F0814A68002A06D00A68531C0B601070E7
:103AF0004868401E486070470A68531C0B6010708D
:103B0000704710B530B1036823B1D0E9012191426B
:103B100001D204E0002010BD491C816020B1914217
:103B200002D25C5C202CF7D99142F4D1491E81600D
:103B300010BD000070B504460F4E19E0A08925683D
:103B4000C0050AD4A06820B1FFF7F4FFA089C00522
:103B500003D4206908B171688847A089800503D41F
:103B6000206A08B1716888477168204688472C46EA
:103B7000002CE3D170BD000008000020002200F0FE
:103B80002FB910B5016828208847040002D02821E9
:103B9000FCF781FB204610BD0022114600F06EB8F4
:103BA0002DE9F04788B00F4604469A4616461C2178
:103BB0006846FCF770FB2F480025002C0560456027
:103BC00055D08146E7B3CDE900470295D9E9021205
:103BD000D9F810000491CDE9052009F10800FFF79C
:103BE000D0FF5FEA00082BD000986F4608B102981A
:103BF00008B100270BE00198042808D903221EA170
:103C00000098FCF786FB10B90298C01C0290384659
:103C1000FFF777FF0146404600F008FC68B1BAF1B3
:103C2000000F13D06846FFF76CFFDDE90101814208
:103C300003D202990098405C40B14046FFF77AFFFA
:103C4000DDE9011088420AD205460BE01EB1029957
:103C5000009808443060404608B0BDE8F087081E70
:103C600000D0451E0EB160193060C9E90045002042
:103C7000F2E7000000000020EFBBBF0070B5154662
:103C80000E46040009D0FCF72FFB411C2B463246A0
:103C90002046BDE87040FFF783BF002070BD0000E4
:103CA00070B5264D4FF48074002221462846FDF75A
:103CB000A4FB032000F06EF8012221462846FDF700
:103CC0009CFB0A2000F066F8002221462846FDF7FA
:103CD00094FB660031462846FDF78AFB0028F9D0A0
:103CE000174C0020606205E0606A401C60620220A0
:103CF00000F050F831462846FDF77AFB0128F3D052
:103D000094ED090AB8EE400A10EE100AFCF740FEE6
:103D10009FED0C1B53EC112BFCF790FD9FED0B1B43
:103D200053EC112BFCF78AFDFCF719FE6065BDE82A
:103D300070404FF47A70FDF759BA0000000002405D
:103D40001400002066666666666606400000000095
:103D5000C58F913F0020054A01464FF4FA73115474
:103D6000401C9842FBDB0248016570475803002065
:103D7000140000200020054A01464FF4FA73115444
:103D8000401C9842FBDB0248C17070476401002070
:103D900014000020044900220B685A6209684A6A2C
:103DA0008242FCD3704700009400002004484FF486
:103DB00000714269034802B10122FDF71EBB0000F9
:103DC000140000200010024013B54FF6FF730122CB
:103DD00069460248FEF754F900981CBDDC0000203B
:103DE0002DE9F0418846A8B3B8F1000F33D08468BC
:103DF0000AB90AE024686CB3216A59B34046FCF75B
:103E00007AFA0028F6D120E024681CB3266A5FEA1B
:103E10000805F9D0002EF7D0B54218D002E098B1CD
:103E20006D1C761C2878FCF704FA07463078FCF7FE
:103E300000FA87422878F2D0FCF7FBF90546307883
:103E4000FCF7F7F98542DFD124B1206A10B1204692
:103E5000BDE8F081FFE70020FAE700002DE9F0411E
:103E60000B3020F00706104D19E02068B04215D342
:103E7000B0420AD9871B201DD4F80480FCF7F2F960
:103E8000A019C0E90078286004E060682860201D5F
:103E9000FCF7E8F9201D2660BDE8F081251D2C689F
:103EA000002CE2D10020F7E7880000201CB5FDF7C8
:103EB000B7FAFEF78FFEFEF73FF9FEF799F93348A0
:103EC00031494FF4E13500240160C0E901540C266A
:103ED000C460C0E904468461C461FDF7FFFF08B116
:103EE00072B6FEE729482A4944300160C0E901540E
:103EF000C460C0E904468461C461FDF7EFFF08B106
:103F000072B6FEE721484838FDF712FE21A0FFF700
:103F1000BBF8012223491D48FEF77AF821491B48C6
:103F20000122891C4430FEF773F84FF47A7420465E
:103F3000FDF75CF91CA0FFF7A7F8FEF7CBFD2046C4
:103F4000FDF754F91DA0FFF79FF81FA0FFF79CF89D
:103F5000144CA41ED4E90E01CDE9000104F128009F
:103F60000FC8FDF707F818A0FFF78EF8FDF74AFA1B
:103F7000C4F80C00FEF700FFFFF718FFFFF790FEF4
:103F8000FEF7AAFBF6E7000000440040DC0000203A
:103F900000140140536574757020554152540D0A48
:103FA000000000001600002053657474696E6720DD
:103FB000455350383236360D0A000000536574758B
:103FC00070204F4B0D0A00003D3D3D3D3D3D3D3DC8
:103FD0003D3D3D3D3D3D3D3D3D3D3D3D3D3D3D3D11
:103FE0003D3D3D3D3D3D3D3D3D3D3D3D3D3D3D3D01
:103FF0003D3D3D3D3D3D3D3D3D3D3D3D3D3D3D3DF1
:104000000D0A00002DE9F04107460025C8680C465E
:104010002E46B0F57A7F5BD2401CE0602168A06834
:10402000095C5B2954D1401CA0602046FFF769FD64
:104030004CB1D4E90110884203D22268125C5D2A97
:1040400033D0884203D3A068401EA06040E0401EE9
:1040500004F11008A0604046FFF793FD98B30DB33C
:10406000306046600646A068401CA0602046FFF70E
:1040700048FD2146304600F0D9F930B32046FFF71D
:1040800040FD14B3D4E90110884203D22168095CD1
:104090002C29E0D06268904217D22168085C5D2824
:1040A00013D102E005462E46DDE7E068401EE060E1
:1040B00005B16E602020C7E90250A068401CA060D6
:1040C0000120BDE8F081FFE715B12846FFF732FD7A
:1040D0000020F6E7034610B500200246995CA1F1E6
:1040E0003004092C01D830380AE0A1F14104052C34
:1040F00001D8373804E0A1F16104052C08D85738FD
:104100000844032A00D20001521C042AE6D310BD41
:10411000002010BDF0B54FF000022DED028B91B0E4
:104120000C0005464FF02E03114610923DD020683A
:10413000D8B36E4627E027683844085C34281BD083
:104140000ADCA0F12B07092F23D2DFE807F01522A4
:10415000151722151515150038280DD006DC352841
:104160000AD0362808D0372813D105E0392803D0E3
:10417000452801D065280CD1705400E07354491CC7
:104180003F2906D22CB1A068D4F804C0471867456F
:10419000D1D3725410A93046FEF7F6FF1098B0EE56
:1041A000408AF0EE608A864204D1002011B0BDEC56
:1041B000028BF0BD9FED130B85ED068B53EC102B9E
:1041C00051EC180BFCF710FC02D86FF000400FE028
:1041D0009FED0E0B51EC180B53EC102BFCF7ECFB86
:1041E00002D84FF0004003E051EC180BFCF798FBAD
:1041F00068610820E8601099A068891B0844A060E5
:104200000120D3E70000C0FFFFFFDF4100000000F6
:104210000000E0C12DE9F04107460026C8680C46C1
:104220003546B0F57A7F78D2401CE060002C74D01F
:10423000D4E90110884270D22168095C7B296CD1D5
:10424000401CA0602046FFF75CFCD4E901108842C6
:1042500003D22268125C7D2A4CD08842A0F1010072
:10426000A0605AD204F110084046FFF78AFCE8B378
:10427000F6B1286045600546A068401CA060204655
:10428000FFF73FFC2146284600F049F878B3204666
:10429000FFF737FC28692862002028613CB3D4E985
:1042A0000110884236D22168095C3A2932D102E0F5
:1042B00006463546E0E7401CA0602046FFF721FC9B
:1042C0002146284600F0B2F888B12046FFF719FCD5
:1042D000D4E90110884203D22168095C2C29C3D09B
:1042E0006268904216D22168085C01E011E011E09A
:1042F0007D280FD1E068401EE06006B17560402067
:10430000C7E90260A068401CA0600120BDE8F08100
:1043100003E016B13046FFF70DFC0020F6E72DE96B
:10432000F84380468B6808684FF00009C418CDF840
:10433000009008680E46651CC15C641C22296ED181
:104340000022716808E0BCF15C0F04D17F1C8F4231
:1043500065D2521C641C641C271A8F4204D294F844
:1043600000C0BCF1220FEED1271A8F4257D221781C
:10437000222954D11844201A801A3169401C8847D8
:1043800007004CD0009737E029785C2905D00098C9
:104390006D1C00F8011B00902EE00220611B01291A
:1043A00039DB6A78662A14D008DC222A12D02F2A38
:1043B00010D05C2A0ED0622A2DD108E06E2A0ED0D1
:1043C000722A0ED0742A0ED0752A24D10DE008224C
:1043D00000E00C22009901F8012B00910BE00A2269
:1043E000F8E70D22F6E70922F4E76A462146284657
:1043F00000F0D0F878B10544A542C5D3009981F802
:1044000000901021C8E903173068201A401CB060E2
:104410000120BDE8F88317B171693846884715B1A6
:104420003068281AB0600020F3E7000070B50C0077
:1044300005465ED0206800285BD0A16863680A1D2D
:104440009A4205D80844042231A1FBF762FF78B3F1
:10445000A0686268411D0126914206D821680522A4
:1044600008442DA1FBF755FF28B3A0686268011D21
:10447000914206D821680422084429A1FBF749FF8C
:10448000E8B1D4E90101814203D22268525C222AB8
:104490001DD0814221D22268525C2D2A02D0303AAE
:1044A000092A1AD821462846BDE87040FFF732BED7
:1044B0000420E86006E0EE60A068401D04E00220F1
:1044C0006E61E860A068001DA060012070BD2146FB
:1044D0002846BDE87040FFF722BF814203D2226820
:1044E000525C5B2A07D0814203D22068405C7B2863
:1044F00007D0002070BD21462846BDE87040FFF778
:1045000081BD21462846BDE87040FFF783BE00000C
:104510006E756C6C0000000066616C7365000000D5
:1045200074727565000000002DE9F04704008A46AA
:1045300016D054F8047CD4F800903E1F564500D99C
:1045400056462046FEF7F0FD05468846324621468F
:104550005046FFF783FC40B1C0F80090BDE8F087FB
:10456000BDE8F0470846FEF723BE44E9017955B19E
:1045700029686A18211F8A4202D9611B091F296014
:10458000C5F80480EAE7024AC2F80080E6E70000C6
:10459000880000202DE9F04705460027481B1646F5
:1045A000894606285DDBA81CFFF794FD0446A0F5AC
:1045B0005C414FF48060814253D3A4F55841824658
:1045C00051451AD2A81DA9EB00014FF00C0806298D
:1045D00047DB01785C2944D14178752941D1801CA1
:1045E000FFF778FDA0F55C4151453AD2C4F30901CB
:1045F00061F39F2000F5803002E04FF0060820466E
:10460000802801D2012110E0B0F5006F02D2022112
:10461000C0270AE0B0F5803F02D20321E02704E082
:10462000B0F5881F1DD20421F0274A1E08E000BF04
:1046300000F0BF03346843F080038009A354521E86
:1046400012F0FF02F4D1012901D9384301E000F052
:104650007F00326810703068084430604046BDE822
:10466000F0870020FBE700000000000000000102CE
:1046700003040607080900000000010203040040CB
:104680004040404040404040414141414140404025
:104690004040404040404040404040404040400555
:1046A00002020202020202020202020202020220CC
:1046B00020202020202020202002020202020202CC
:1046C00090909090909010101010101010101010EA
:1046D000101010101010101010100202020202022E
:1046E000888888888888080808080808080808084A
:1046F0000808080808080808080802020202400022
:104700007F4600083131313100000000706170795E
:10471000626F6931323300004641333433364543EA
:1047200045464338343639340000000070617079F2
:10473000626F693132332F4100000000706170797F
:10474000626F693132332F42000000006E676F697B
:104750006E6861696F742E636F6D00007C4700089E
:1047600000000020940000000032000810480008FB
:1047700094000020BC0A0000103200080000000075
:1047800000000000B1310008293100082945000867
:104790000001000000000000000000000000000018
:1047A0000000000000000000000000000000000009
:1047B00000000000000000004C470008044700080B
:1047C0000C470008184700083C4700082C47000821
:1047D00000000000000000000000000000000000D9
:1047E00000000000000000000100000010000000B8
:1047F000000000000024F4000000000000000000A1
:1048000000000000000000000000000000000000A8
:040000050800019955
:00000001FF
