:020000040800F2
:1000000000050020AD0100081F110008490F00087D
:100010001D110008B9020008CF14000800000000FC
:10002000000000000000000000000000BB110008FC
:10003000BB02000800000000B9110008BD11000853
:10004000C7010008C7010008C7010008C701000870
:10005000C7010008C7010008C7010008C701000860
:10006000C7010008C7010008C7010008C701000850
:10007000C7010008C7010008C7010008C701000840
:10008000C7010008C7010008C70100080000000000
:10009000000000000000000000000000C701000890
:1000A000C7010008C7010008C7010008C701000810
:1000B000C7010008C7010008C7010008C701000800
:1000C000C7010008C7010008C7010008C7010008F0
:1000D000C7010008C7010008C701000800000000B0
:1000E000C7010008C7010008C701000800000000A0
:1000F000000000000000000000000000C701000830
:1001000000000000C7010008C7010008C70100087F
:1001100000000000000000000000000000000000DF
:10012000C7010008C7010008C7010008C70100088F
:10013000C7010008000000000000000000000000EF
:10014000000000000000000000000000C7010008DF
:10015000C7010008C7010008C7010008C70100085F
:10016000C7010008C70100080000000000000000EF
:10017000000000000000000000000000000000007F
:1001800000000000C701000800000000000000009F
:10019000C7010008C7010008DFF80CD000F07AF8AA
:1001A0000048004711150008000500200648804758
:1001B00006480047FEE7FEE7FEE7FEE7FEE7FEE74C
:1001C000FEE7FEE7FEE7FEE751120008990100088E
:1001D0002DE9F05F0546002092469B46884606467C
:1001E000814640241BE0284641464746224600F00F
:1001F00041F853465A46C01A914110D31146184649
:10020000224600F028F82D1A67EB01084F462246D7
:100210000120002100F01FF817EB00094E41201EBD
:10022000A4F10104DFDC484631462A464346BDE8D6
:10023000F09FD2B201E000F8012B491EFBD27047BB
:100240000022F6E710B513460A4604461946FFF7A2
:10025000F0FF204610BD202A04DB203A00FA02F10C
:10026000002070479140C2F1200320FA03F31943A4
:1002700090407047202A04DB203A21FA02F0002146
:10028000704721FA02F3D040C2F1200291400843A6
:1002900019467047064C074D06E0E06840F0010340
:1002A00094E8070098471034AC42F6D3FFF778FF84
:1002B000C8150008E8150008FEE7704770B5044649
:1002C00000F0DEF80546601C02D0044800780444C3
:1002D00000F0D6F8401BA042FAD370BD30000020D9
:1002E0002DE9F84F00224FF0010803254FF00F0EC3
:1002F0000B6808FA02F42340A34271D14E68012E24
:1003000005D0022E03D0112E01D0122E15D18668F1
:10031000570005FA07FC26EA0C06D1F80CC00CFAC7
:1003200007FC4CEA060CC0F808C04668A6430C79E6
:10033000C4F30014944034434460C668570005FA7F
:1003400007FC8C6826EA0C06BC403443C4604C6849
:10035000022C01D0122C13D1D40800EB8404A34644
:10036000D4F8209054074FEAD46A0EFA0AF629EA24
:1003700006090E6906FA0AF646EA0906CBF8206075
:1003800004680E7924EA0C0406F00306BE402643F6
:1003900006604C68E40056D52E4C266846F480462C
:1003A0002660246822F0030604F4804400942A4C5A
:1003B0003444A446D4F808489607370F0EFA07F6D7
:1003C000B443264EB04201D1002615E0244EB0427F
:1003D00001D1012610E0234EB04202D102260BE0EB
:1003E00031E0214EB04201D1032605E01F4EB0425C
:1003F00001D1042600E00726BE402643CCF8086859
:100400001B4E34684F689C43FF0300D51C43346087
:10041000174E361D34684F689C43BF0300D51C43FC
:100420003460134E083634684F689C43FF0200D591
:100430001C4334600E4E0C3634684F689C43BF0238
:1004400000D51C433460521C102AFFF451AFBDE8A4
:10045000F88F0000443802400030014000000240A4
:100460000004024000080240000C0240001002405C
:10047000003C01400AB1816170470904FBE70000BC
:100480000148806870470000300000200248816801
:100490000278114481607047300000200B4810B58D
:1004A000016841F400710160016841F480610160FC
:1004B000016841F480710160032000F061F80020C0
:1004C00000F006F800F024F8002010BD003C0240C7
:1004D00070B50D4D04464FF47A712878B1FBF0F0F9
:1004E0000A490968B1FBF0F000F0D4FA48B9102CC1
:1004F00007D200222146501E00F022F800206C6036
:1005000070BD012070BD0000300000203C000020C4
:100510000A4808B5016841F480410160006800F4B0
:10052000804000900548001F016841F08051016043
:10053000006800F08050009008BD00004438024080
:10054000F0B40E4B1B680C46C3F30223C3F107053E
:10055000042D00D90425191D072901D2002300E02C
:10056000DB1E012606FA05F1491E214099409E40F6
:10057000761E16403143F0BC00F0AABF0CED00E03F
:10058000064900F0070208684FF6FF03184040EAEA
:100590000220034A10430860704700000CED00E0A1
:1005A0000000FA052DE9F0470E46050065D0DFF89A
:1005B0001481D8F80000F7B200F00F00B04207D263
:1005C00088F80070D8F8000000F00F00B04254D155
:1005D00028683D4C810712D5400703D5206840F4B8
:1005E000E05020602878000703D5206840F4604080
:1005F00020602068A96820F0F00008432060287877
:10060000C0072DD0304968680839012812D0022867
:1006100013D0032811D00968890700292DDA216831
:1006200021F0030101432160FFF72AFF814641F2D7
:10063000883A0EE009688903EFE709688901ECE769
:10064000FFF71EFFA0EB0901514502D90320BDE8C9
:10065000F0872068696800F00C00B0EB810FEFD1E3
:10066000D8F80010404601F00F01B14207D90770D9
:10067000006800F00F00B04201D00120E7E72878C1
:10068000400705D52068E96820F4E0500843206061
:100690002878000706D52068296920F4604040EAE0
:1006A000C100206000F018F82168084AC1F3031166
:1006B000515CC8400649086006480068FFF708FF1B
:1006C0000020C4E7003C024008380240B81500088A
:1006D0003C00002034000020154810B5006810F0E0
:1006E0000C02144813D04110042A0FD0082A0ED14E
:1006F0000F4C241F2268236802F03F025B0207D5DB
:100700002068C0F38810A0FB010106E0084610BD78
:100710002168C1F38811A1FB00010023FFF758FDF8
:100720002168C1F30141491C4900B0FBF1F010BD43
:10073000083802400024F4002DE9F84F04006ED080
:100740002078DFF83C93C007A9F104054AD009F1ED
:1007500004000168C1F38101012908D00068C0F3D9
:10076000810002280AD1D9F80000400206D5286885
:10077000800337D560680028E1D033E06068B0F5C9
:10078000803F10D0B0F5A02F286810D020F4803022
:100790002860286820F4802028606068A8B1FFF7EE
:1007A0006FFE06460DE0286840F48030F4E740F420
:1007B00080202860F7E700BFFFF762FE801B6428F7
:1007C00073D828688003F7D50CE0FFF759FE06467A
:1007D00005E000BFFFF754FE801B6428F0D82868AE
:1007E0008003F7D42078DFF89C8280074FF0000A5E
:1007F0003ED5A348001D016811F00C0F08D0006819
:10080000C0F3810002280BD1D9F80000400207D4C0
:100810002868800716D5E068012800D112E02BE196
:10082000E068B8B10120C8F80000FFF729FE0646CD
:1008300005E000BFFFF724FE801B0228C0D828680F
:100840008007F7D52868216920F0F80040EAC10048
:1008500028600DE0C8F800A0FFF712FE064604E08D
:10086000FFF70EFE801B02281FD828688007F7D4E8
:100870002078000722D5824E83486169703671B1B5
:1008800001210160FFF7FCFD074604E0FFF7F8FDDA
:10089000C01B022809D830688007F7D50EE0C0F8E1
:1008A00000A0FFF7EDFD074605E082E0FFF7E8FD59
:1008B000C01B02287DD830688007F7D42078400715
:1008C00068D5DFF8BCB100270BF13C0BDBF800006A
:1008D000C0000BD4DBF8001041F08051CBF80010C1
:1008E000DBF80000012700F080500090674E306870
:1008F000C00510D4306840F480703060FFF7C0FD50
:10090000009005E0FFF7BCFD0099401A022850D87E
:100910003068C005F6D55A4EA0686C3601280FD055
:100920000528306810D020F001003060306820F0D9
:1009300004003060A068B8B1FFF7A2FD00900FE09E
:10094000306840F00100F4E740F004003060F7E761
:10095000FFF796FD0099411A41F28830814266D82E
:1009600030688007F4D50EE0FFF78AFD009007E0BD
:10097000FFF786FD0099411A41F28830814256D82E
:1009800030688007F4D42FB1DBF8001021F08051DB
:10099000CBF80010A069C8B33949091D0968C1F333
:1009A000810102294AD00228504607D0C8F86000C9
:1009B00000E03CE0FFF764FD04463BE04746C8F832
:1009C0006000FFF75DFD064605E000BFFFF758FD3C
:1009D000801B02282BD828688001F7D4D4E90701AE
:1009E0000843A16A2A4A490802EB0141626A41EAC6
:1009F0008211084394F82C1040EA0161C9F80010F4
:100A000001203866FFF73CFD044606E036E000BFF3
:100A1000FFF736FD001B022809D828688001F7D5AA
:100A20002CE000BFFFF72CFD001B022802D9032099
:100A3000BDE8F88F28688001F4D41FE00128F7D0C2
:100A4000D9F80000E26900F48001914214D1226AD1
:100A500000F03F0191420FD147F6C071626A014038
:100A6000914209D1A26A00F44031914204D1E16A75
:100A700000F07060884201D00120D9E70020D7E75C
:100A80000438024000004742800E47420070004098
:100A90000000FFFF10B5401EB0F1807F01D30120A0
:100AA00010BD4FF0E02460610F21601700F010FDD1
:100AB0000020A06107202061002010BD70B590F8D3
:100AC0003C20012A2CD0012480F83C40022280F8EE
:100AD0003D2003685A689D6822F070060A68324318
:100AE0005A60104B02689A420ED0B2F1804F0BD080
:100AF0000D4B9A4208D00D4B9A4205D00C4B9A42AE
:100B000002D00C4B9A4204D1496825F08003194366
:100B1000916080F83D40002180F83C10084670BD8F
:100B2000022070BD000001400004004000080040A9
:100B3000000C00400040014010B5040003D094F8C0
:100B40003D0010B107E0012010BD002084F83C00FA
:100B5000204600F00DF8022084F83D00211D206899
:100B600000F084FB012084F83D00002010BD00004F
:100B700008B50C4A01680C48914207D1016841F060
:100B800002010160006800F0020009E0074A91429A
:100B900007D1016841F004010160006800F0040021
:100BA000009008BD000400404038024000080040AA
:100BB00070B5044690F83C00012817D0012584F850
:100BC0003C50022084F83D002068826822F07702C1
:100BD00022F47F4282600868502830D00DDC202843
:100BE0004DD005DC98B310283BD148E0022070BD01
:100BF000302844D0402834D139E0602828D07028EB
:100C000006D0B0F5805F2CD0B0F5005F29D10AE0A6
:100C1000CB68D1E90121206800F081FB2068816860
:100C200041F0770109E0CB68D1E90121206800F0AB
:100C300076FB2068816841F48041816011E0CA68D8
:100C40004968206800F020FC5021206807E016E089
:100C5000CA684968206800F028FC6021206800F01C
:100C600068FB84F83D50002084F83C0070BDCA68E1
:100C70004968206800F008FC40212068EFE72268FE
:100C800001461046EBE72DE9F0410D46040003D084
:100C900094F83D0018B108E00120BDE8F081002083
:100CA00084F83C00204600F03BF8022084F83D0028
:100CB0002068816844F2070291438160211D206809
:100CC00000F0D4FA226890689169166A2B68AF69BF
:100CD000034340F20330814341EA0721A868EF69EA
:100CE00008434FF6FC418843E96840EA0720014386
:100CF00028692F6A000140EA0730084369686D6976
:100D000026F0AA0646EA05152943936022689061F9
:100D100020680162012084F83D000020BDE700004A
:100D200010B586B0044614216846FFF789FA20689A
:100D3000B0F1804F1FD111480021026842F001023A
:100D40000260006800F0010005900C48103802684D
:100D500042F001020260006800F0010005900320EB
:100D600000900220CDE901010120CDE90310694680
:100D70000348FFF7B5FA06B010BD00004038024046
:100D80000000024010B50446006891B1042904D067
:100D90000122002100F0B6FA206801225FF0040170
:100DA00000F0B0FA2068016841F001010160002004
:100DB00010BD01220021F3E710B586B004461421CE
:100DC0006846FFF73DFA0D492068884214D10C4867
:100DD0000021026842F001020260006800F0010098
:100DE0000590402000900220CDE90101CDE90310DB
:100DF00069460448FFF774FA06B010BD00040040CD
:100E0000303802400000024070B5044690F83C00C3
:100E10000D4601280DD0012684F83C60022084F89C
:100E20003D0042B1042A18D0082A2AD00C2A4DD1FC
:100E300039E0022070BD206800F084FA20688169E2
:100E400041F0080181612068816921F0040181611C
:100E5000206881692A69114311E0206800F09AFA3C
:100E60002068816941F4006181612068816921F411
:100E700080618161206881692A6941EA022181617A
:100E800024E0206800F0B2FA2068C16941F008014E
:100E9000C1612068C16921F00401C1612068C16994
:100EA0002A69114311E0206800F0CCFA2068C1697A
:100EB00041F40061C1612068C16921F48061C161B0
:100EC0002068C1692A6941EA0221C16184F83D6054
:100ED000002084F83C0070BD10B5040003D094F8E5
:100EE0003D0010B107E0012010BD002084F83C0057
:100EF000204600F00CF8022084F83D00211D2068F7
:100F000000F0B4F9012084F83D00002010BD7047C6
:100F100010B504460068012200F0F4F90949206880
:100F2000884203D1416C41F40041416420688168EA
:100F300001F00701062903D0016841F001010160B9
:100F4000002010BD00000140FEE7000070B586B033
:100F500014216846FFF774F912480024016841F033
:100F600080010160016801F080010591016841F094
:100F70000101016000680C4E00F001004FF4407563
:100F80000590224629463046FFF774FA0120009565
:100F9000CDE90104694630460394FFF7A1F906B094
:100FA00070BD0000303802400000024010B58CB027
:100FB00024216846FFF744F90024154809944FF0AE
:100FC00080410A94C0E90014611EC0E902418021F9
:100FD000046181610320CDE900040120CDE9020410
:100FE0000494CDE905400794694609480894FFF741
:100FF0004AFE08B172B6FEE7099409A904480A94AA
:10100000FFF75CFD002801D072B6FEE70CB010BD02
:101010004000002010B58EB0002407940894099475
:101020000A940B941C2168460C94FFF709F91F4899
:101030001D4901603221C0E90114C721C0E9031430
:1010400080218161FFF778FD08B172B6FEE74FF4A9
:101050008050079007A91548FFF7AAFD08B172B69E
:10106000FEE71248FFF738FF08B172B6FEE70B94AF
:101070000BA90E480C94FFF721FD08B172B6FEE7EC
:10108000602000906420CDE90104002269460748F1
:101090000494FFF7B9FE08B172B6FEE70348FFF704
:1010A0008BFE0EB010BD0000000400408000002048
:1010B00010B586B00024184800940194029403945B
:1010C00004941449059401604AF21041C0E90114E6
:1010D00040F64C11C0E9031480218161FFF72CFD1B
:1010E00008B172B6FEE74FF48050009069460A4896
:1010F000FFF75EFD08B172B6FEE7049404A9064846
:101100000594FFF7DBFC002801D072B6FEE706B0BD
:1011100010BD000000080040C0000020FEE7FEE710
:101120002048DFED1F2ADFED201AC0ED052A9FEDD4
:101130001F1AC0ED061A80ED071AD0ED000A0169EA
:101140001B4A00EE101AB8EEC00A70EEC00AC0EDDD
:10115000080A90ED0A0A30EE803A30EEC02A80ED9F
:10116000093A80ED0B2AC0ED0A0A90ED010A01EE62
:10117000A00A02EE830A01EE020A10EE101A80EDB8
:10118000010A914204DD9FED0B0A80ED010A7047D0
:10119000B5EEC00AF1EE10FAF9D280ED011A7047EF
:1011A00017B7D138000000206B2B763D00000000FF
:1011B000000047430000474370477047FFF766B998
:1011C00030B593B030216846FFF73AF814210CA8E7
:1011D000FFF736F81C480025016841F08051016096
:1011E000006800F0805011901848016841F44041B7
:1011F00001600068022400F440401190012000903A
:10120000000401908001CDE9064008AA0420642171
:1012100082E813000B906846FFF78EFA08B172B6A9
:10122000FEE70CA90F2081E831004FF48050CDE992
:101230000F0503210CA8FFF7B5F9002801D072B6FD
:10124000FEE713B030BD000040380240007000409F
:101250000548016841F47001016003494FF00060E6
:10126000803908607047000088ED00E0F0B5026842
:101270001D4B1E4C9F031E4D1E4E984207D0B84278
:1012800005D0A04203D0A84201D0B04204D122F040
:10129000700C4A6842EA0C02984210D0B8420ED054
:1012A000A0420CD0A8420AD0B04208D0124CA042B2
:1012B00005D0124CA04202D0114CA04203D122F41E
:1012C0004074CA6822434C6922F0800222430260C3
:1012D0008A68C2620A688262984201D10969016320
:1012E00001214161F0BD0000000001400004004008
:1012F00000080040000C0040004001400044014054
:101300000048014010B501F01F030121046A994013
:101310008C430462016A9A401143016210BD10B50A
:10132000846842EA032224F47F440A432243826011
:1013300010BD826822F070020A4342F0070181600A
:101340007047000030B5026A22F001020262026AB0
:101350004368846924F073050C682C4322F002056D
:101360008A682A430A4DA8420BD122F00805CA68B0
:1013700023F440732A434D6922F004021D438B6914
:101380002B434360846149684163026230BD0000C1
:101390000000014030B5026A22F010020262026AC7
:1013A000436884690D6824F4E64444EA05248D68A2
:1013B00022F0200242EA05120B4DA8420ED1CD6860
:1013C00022F0800242EA05124D6923F4406343EAA9
:1013D00085038D6922F0400243EA850343608461FE
:1013E00049688163026230BD0000014030B5026A85
:1013F00022F480720262036A4268C46923F40073B3
:1014000024F073050C682C438D6843EA05230C4DCA
:10141000A8420ED1CD6823F4006343EA05234D6949
:1014200022F4405242EA05128D6923F4806342EAB5
:1014300005124260C4614968C163036230BD0000A7
:101440000000014030B5026A22F480520262046A50
:101450004268C3690D6823F4E64343EA05238D68B7
:1014600024F4005444EA0534064DA84204D14D69E1
:1014700022F4804242EA85124260C36149680164F5
:10148000046230BD0000014010B5036A046A24F014
:1014900001040462846924F0F00444EA021423F095
:1014A0000A020A438461026210BD10B5036A23F088
:1014B000100303628369046A23F4704343EA02322F
:1014C00024F0A00343EA01118261016210BDFEE72E
:1014D0000907090E002804DB00F1E02080F8001461
:1014E000704700F00F0000F1E02080F8141D7047F5
:1014F00002E008C8121F08C1002AFAD170477047DD
:10150000002001E001C1121F002AFBD1704700003A
:101510002DED028BFEF7C2FFFFF752FEFFF716FD1F
:10152000FFF744FDFFF776FDFFF7C2FD04211E48DB
:10153000FFF728FC1C4800214030FFF7E9FC1B4C5A
:10154000012211022046FEF795FF00226115204678
:10155000FEF790FF012240212046FEF78BFF124D3F
:101560009FED138A134C05F140062C2784ED008A69
:101570006420FEF7A3FE2868406AA060A068E168C6
:10158000401AC0EB0010800090FBF7F02061FFF7DD
:10159000C7FDA068E06094ED010A3168BCEEC00AA6
:1015A00010EE100A4863E1E740000020000002400E
:1015B00000001644000000200000000000000000B1
:1015C0000102030406070809E815000800000020CE
:1015D00040000000F0140008281600084000002019
:1015E000C0040000001500080000164400000000C0
:1015F00000000000000000000000000000000000EB
:1016000000000000000000000000000000000000DA
:1016100000000000000000000100000010000000B9
:08162000000000000024F400AA
:040000050800019955
:00000001FF
